:1000000002C100002AC1000028C1000026C1000072
:1000100024C1000022C1000020C100001EC1000058
:100020001CC100001AC1000018C1000016C1000068
:1000300014C1000012C1000010C100000EC1000078
:100040000CC100000AC1000008C1000006C1000088
:1000500004C1000002C1000000C1000009C300008B
:10006000FCC00000FAC00000F8C00000F6C00000AC
:10007000F4C00000F2C00000F0C00000EEC00000BC
:10008000ECC00000EAC00000E8C00000E6C00000CC
:10009000E4C00000E2C00000E0C00000DEC00000DC
:1000A000DCC00000DAC00000D8C00000D6C00000EC
:1000B000D4C00000D2C00000D0C00000CEC00000FC
:1000C000CCC00000CAC00000C8C00000C6C000000C
:1000D000C4C00000C2C00000C0C00000BEC000001C
:1000E000BCC0000000002100240027002A002D00D1
:1000F0003000330001010000040107010A01000083
:100100002200250028002B002E00310034000201BF
:100110000000050108010B0100002000230026005B
:1001200029002C002F00320000010000030106010D
:10013000090105050505070508080808020202026D
:100140000A0A080804040404010101010101010173
:100150000303030303030303040707070C0C0C0C3E
:100160000C0C0C0C02020202060606060606060627
:100170000B0B0B0B0B0B0B0B0102102020080810B4
:100180002040102040800201020108040201010207
:1001900004081020408080402010080402018004E0
:1001A000020180402010080402010804020101023B
:1001B0000408102040800102040810204080000044
:1001C000090A02080B0C0D070603040100000000D9
:1001D000000000000000000000000000000000001F
:1001E0000000000000000000000011100F000000DF
:1001F00000000000000000000000000000000000FF
:10020000000000002F0111241FBECFEFD1E2DEBF9E
:10021000CDBF00E00CBF12E0A0E0B2E0E0E1FBE007
:1002200000E00BBF02C007900D92A832B107D9F7CA
:100230001BBE12E0A8E2B2E001C01D92A634B107D5
:10024000E1F712E0C6E0D2E003C02297FE015AD4E3
:10025000C430D107D1F7FFD359C4D2CE0895CF927D
:10026000EF920F9388E292E068E049E024E005E035
:1002700056E0E52E37E0C32EC3D10F91EF90CF901B
:1002800008950F931F9308E212E0C80160E142E075
:1002900020E018D1C80111D1C80160E040E0DFD0F2
:1002A000C80160E072E02AD4C80160E041E0D7D024
:1002B000C80166E072E022D460ED77E080E090E073
:1002C0001FD2C801FAD0C80160E040E0C8D0C80120
:1002D0006CE072E013D460ED77E080E090E010D243
:1002E000C80160E041E0BBD0C80162E172E006D421
:1002F0001F910F9108950F931F938C01FC0186812C
:1003000060E076D381E090E054D2F801868161E02C
:100310006FD381E090E04DD2F801868160E068D330
:1003200084E690E046D21F910F910895CF92DF921C
:10033000EF92FF920F931F93CF93DF93D82EC92E86
:10034000282F392FC9018C01C0E0D0E0E62EFF2410
:10035000F801878161E099D2B7010C2E02C0759532
:1003600067950A94E2F76170F801878141D321967D
:100370000F5F1F4FC830D10559F78D2D9C2DBBDF66
:10038000DF91CF911F910F91FF90EF90DF90CF9071
:100390000895CF92DF92EF92FF920F931F93CF9326
:1003A000DF93D82EC92E282F392FC9018C01C0E028
:1003B000D0E0E62EFF24F801878161E066D2B70124
:1003C0000C2E02C0759567950A94E2F76170F801EA
:1003D00087810ED321960F5F1F4FC430D10559F787
:1003E0008D2D9C2D88DFDF91CF911F910F91FF9074
:1003F000EF90DF90CF9008951F93CF93DF93EC01A0
:10040000162F8C81642FF4D28D818F3F11F060E024
:10041000EFD28F8584FF04C0CE01612F87DF0CC02F
:10042000612F70E084E0759567958A95E1F7CE01BC
:10043000B0DFCE01612FADDFDF91CF911F91089525
:1004400041E0DADF81E090E0089540E0D5CFFC01A3
:100450006089862F8460808B6C60CF01F6CFDF933C
:10046000CF93CDB7DEB728970FB6F894DEBF0FBE97
:10047000CDBF9C01FE013196A0E2B2E088E00D9074
:1004800001928150E1F7F9018389481710F0482F54
:100490004150E42FF0E0EE0FFF1FEC0FFD1F8181B4
:1004A000680F6068C901D1DF28960FB6F894DEBFE7
:1004B0000FBECDBFCF91DF91089561E0C6DF80ED23
:1004C00097E077C1CF93DF93EC01423018F08F852E
:1004D00088608F874B8B1C8A222329F0413019F4C6
:1004E0008F8584608F8780E593EC63D18C8160E099
:1004F0007FD28E8160E07CD28D818F3F11F060E0F1
:1005000077D26F8564FD16C0CE0163E042DF84E9D7
:1005100091E14FD1CE0163E03CDF84E991E149D123
:10052000CE0163E036DF86E990E043D1CE0162E0A0
:1005300030DF11C06062CE0188DF84E991E139D1FA
:100540006F856062CE0181DF86E990E032D16F85F0
:100550006062CE017ADF6F856062CE0176DF84E073
:10056000888BCE0174DFCE01A8DF82E0898BCE01BB
:1005700066E06BDFDF91CF9108956F927F928F924B
:10058000AF92CF92EF920F931F93DF93CF93CDB79C
:10059000DEB73C01162F842FF301448325830683A5
:1005A000E782C086A18682869E8593879F859487F1
:1005B000988995879989968761E067D1F30185814C
:1005C0008F3F11F061E061D1F301868161E05DD17F
:1005D000112319F0F301178603C080E1F301878727
:1005E000C30160E141E020E06DDFCF91DF911F9119
:1005F0000F91EF90CF90AF908F907F906F90089574
:100600008F92AF92CF92EF920F931F93CF93DF937E
:10061000DC01362F542F722F102FAE2C8C2C1396FA
:100620001C921E9212978CE192E011969C938E93ED
:1006300000D00F92EDB7FEB73196CDB7DEB7198275
:10064000118212821382CD0161E0432F2FEF052F1B
:10065000E72EC12E92DF0F900F900F900F90DF9139
:10066000CF911F910F91EF90CF90AF908F90089501
:100670001F920F920FB60F9211242F933F938F93D7
:100680009F93AF93BF938091410290914202A091BA
:100690004302B0914402309145020196A11DB11D63
:1006A000232F2D5F2D3720F02D570196A11DB11D51
:1006B000209345028093410290934202A09343020B
:1006C000B093440280913D0290913E02A0913F027E
:1006D000B09140020196A11DB11D80933D029093FF
:1006E0003E02A0933F02B0934002BF91AF919F9111
:1006F0008F913F912F910F900FBE0F901F901895E3
:100700009B01AC017FB7F89480913D0290913E022D
:10071000A0913F02B091400266B5A89B05C06F3F13
:1007200019F00196A11DB11D7FBFBA2FA92F982FD7
:100730008827860F911DA11DB11D62E0880F991FAA
:10074000AA1FBB1F6A95D1F7BC012DC0FFB7F89453
:1007500080913D0290913E02A0913F02B0914002F3
:10076000E6B5A89B05C0EF3F19F00196A11DB11D8C
:10077000FFBFBA2FA92F982F88278E0F911DA11D7B
:10078000B11DE2E0880F991FAA1FBB1FEA95D1F7A0
:10079000861B970B885E9340C8F221503040404042
:1007A000504068517C4F211531054105510571F6C6
:1007B0000895019739F0880F991F880F991F0297A4
:1007C0000197F1F70895789484B5826084BD84B56B
:1007D000816084BD85B5826085BD85B5816085BD3C
:1007E000EEE6F0E0808181608083E1E8F0E0108255
:1007F000808182608083808181608083E0E8F0E096
:10080000808181608083E1EBF0E08081846080837F
:10081000E0EBF0E0808181608083E1E9F0E08081BD
:1008200082608083808181608083E0E9F0E0808164
:1008300081608083E1EAF0E0808182608083808152
:1008400081608083E0EAF0E0808181608083E1E282
:10085000F1E0808182608083808181608083E0E23A
:10086000F1E0808181608083EAE7F0E0808184604C
:1008700080838081826080838081816080838081A9
:10088000806880831092C1000895CF93DF93482F32
:1008900050E0CA0188589E4FFC0134914E5C5E4F77
:1008A000FA018491882369F190E0880F991FFC0177
:1008B000EC51FF4FA591B491FC01E250FF4FC5915F
:1008C000D491662351F42FB7F8948C91932F90957F
:1008D00089238C93888189230BC0623061F42FB700
:1008E000F8948C91932F909589238C938881832BF6
:1008F00088832FBF06C09FB7F8948C91832B8C936D
:100900009FBFDF91CF910895893009F449C08A30A3
:10091000A0F4843051F1853040F4823079F1833095
:1009200000F5813009F063C026C0873079F1883046
:1009300098F5863009F05BC025C08D3009F442C0BF
:100940008E3028F48B30B1F18C30C0F52DC0803161
:1009500009F442C0813109F445C08F3009F047C025
:1009600037C0809180008F7703C0809180008F7D99
:1009700080938000089584B58F7702C084B58F7D01
:1009800084BD08958091B0008F7703C08091B0003E
:100990008F7D8093B0000895809190008F7707C07D
:1009A000809190008F7D03C080919000877F80931D
:1009B000900008958091A0008F7707C08091A000DB
:1009C0008F7D03C08091A000877F8093A000089551
:1009D000809120018F7703C0809120018F7D8093CB
:1009E0002001089580912001877F80932001089540
:1009F000FF920F931F93F62E482F50E0CA018254A6
:100A00009E4FFC012491CA0188589E4FFC0114910D
:100A10004E5C5E4FFA0104910023C1F0222311F0D5
:100A2000822F72DFE02FF0E0EE0FFF1FE250FF4F4A
:100A3000A591B4919FB7F894FF2021F48C91109563
:100A4000812302C08C91812B8C939FBF1F910F91AA
:100A5000FF9008950895CF93DF93B5DEFBDF11DC9F
:100A6000C0E0D0E0FBDB2097E9F30E940000FACF62
:100A7000CF92DF92EF92FF920F931F93CF93DF936A
:100A80007C016B018A01C0E0D0E00FC0D6016D91FE
:100A90006D01D701ED91FC910190F081E02DC7012E
:100AA0001995C80FD91F015010400115110571F794
:100AB000CE01DF91CF911F910F91FF90EF90DF90CA
:100AC000CF900895CF93DF93EC016115710519F470
:100AD00020E030E00FC0DB010D900020E9F7119716
:100AE000A61BB70BE881F9810280F381E02DAD01EF
:100AF00019959C01C901DF91CF910895E3CF089525
:100B0000EE0FFF1F0590F491E02D1994F894FFCF9C
:100B10006C696E6531006C696E6532004C696E659A
:100B200033006C696E653400000000002002380557
:080B3000000040001400540015
:00000001FF
