:1000000071C000008FC000008DC000008BC00000D8
:1000100089C0000087C0000085C0000083C00000C8
:1000200081C000007FC000007DC000007BC00000D8
:1000300079C0000077C0000075C0000073C00000E8
:1000400071C000006FC000006DC000006BC00000F8
:1000500069C0000067C0000065C000007CC00000EF
:1000600061C000005FC000005DC000005BC0000018
:1000700059C0000057C0000055C0000053C0000028
:1000800051C000004FC000004DC000004BC0000038
:1000900049C0000047C0000045C0000043C0000048
:1000A00041C000003FC000003DC000003BC0000058
:1000B00039C0000037C0000035C0000033C0000068
:1000C00031C000002FC000002DC000002BC0000078
:1000D00029C0000027C0000025C0000023C0000088
:1000E00021C0000011241FBECFEFD1E2DEBFCDBF83
:1000F00000E00CBF12E0A0E0B2E0ECE7F3E000E0CB
:100100000BBF02C007900D92A030B107D9F71BBEFC
:1001100012E0A0E0B2E001C01D92AD30B107E1F7FE
:100120001ED12AC16DCF08958091000290910102E5
:1001300001969093010280930002809102029091B7
:1001400003020196909303028093020264E670E03A
:1001500080E090E048C01F920F920FB60F921124DA
:100160002F933F938F939F93AF93BF9380910802F8
:1001700090910902A0910A02B0910B0230910C02F9
:100180000196A11DB11D232F2D5F2D3720F02D5776
:100190000196A11DB11D20930C028093080290933B
:1001A0000902A0930A02B0930B028091040290917D
:1001B0000502A0910602B09107020196A11DB11D92
:1001C0008093040290930502A0930602B093070265
:1001D000BF91AF919F918F913F912F910F900FBE43
:1001E0000F901F9018959B01AC017FB7F8948091F8
:1001F000040290910502A0910602B091070266B533
:10020000A89B05C06F3F19F00196A11DB11D7FBFCE
:10021000BA2FA92F982F8827860F911DA11DB11DD8
:1002200062E0880F991FAA1FBB1F6A95D1F7BC0116
:100230002DC0FFB7F8948091040290910502A0911F
:100240000602B0910702E6B5A89B05C0EF3F19F082
:100250000196A11DB11DFFBFBA2FA92F982F882786
:100260008E0F911DA11DB11DE2E0880F991FAA1FDD
:10027000BB1FEA95D1F7861B970B885E9340C8F2A7
:10028000215030404040504068517C4F211531058D
:100290004105510571F60895789484B5826084BD56
:1002A00084B5816084BD85B5826085BD85B581607A
:1002B00085BDEEE6F0E0808181608083E1E8F0E0DA
:1002C0001082808182608083808181608083E0E809
:1002D000F0E0808181608083E1EBF0E080818460E8
:1002E0008083E0EBF0E0808181608083E1E9F0E0F1
:1002F000808182608083808181608083E0E9F0E09A
:10030000808181608083E1EAF0E080818260808387
:10031000808181608083E0EAF0E080818160808379
:10032000E1E2F1E08081826080838081816080836E
:10033000E0E2F1E0808181608083EAE7F0E08081A3
:1003400084608083808182608083808181608083FB
:100350008081806880831092C10008950895CF93B2
:10036000DF939ADFFBDFDFDEC0E0D0E0DDDE209749
:0C037000E9F30E940000FACFF894FFCFE0
:00000001FF
